:020000040800F2
:1000000038070020450100086D2500086F2500080D
:100010009D250008A1250008A52500080000000076
:10002000000000000000000000000000A9250008FA
:10003000AB25000800000000AD250008A52C000835
:100040005F0100085F0100085F0100085F01000810
:100050005F0100085F0100085F0100085F01000800
:100060005F0100085F0100085F0100085F010008F0
:100070005F0100085F0100085F0100085F010008E0
:100080005F0100085F0100085F0100085F010008D0
:100090005F0100085F0100085F0100085F010008C0
:1000A0005F0100085F0100085F0100085F010008B0
:1000B0005F0100085F010008A92E00085F01000829
:1000C0005F0100085F0100085F0100085F01000890
:1000D0005F010008D12800085F0100085F010008E7
:1000E0005F0100085F0100085F0100085F01000870
:1000F0005F0100085F0100085F0100085F01000860
:100100005F0100085F0100085F0100085F0100084F
:10011000132B00085F010008A92D00085F010008EB
:100120005F0100085F0100085F0100085F0100082F
:10013000DFF80CD006F028FB004800471125000826
:10014000380700200648804706480047FEE7FEE7DC
:10015000FEE7FEE7FEE7FEE7FEE7FEE7FEE7FEE777
:10016000310200083101000800210020674A1268AE
:1001700042F48032654B1A6000BF644A126802F490
:100180000030491C10B9B1F5A06FF6D15F4A126872
:1001900012F4003F01D0012000E00020012842D1EC
:1001A0005B4A126842F01002594B1A601A461268F4
:1001B00022F003021A601A46126842F002021A6024
:1001C000524A5268514B5A601A4652685A601A464F
:1001D000526842F480625A601A46526822F47C12D5
:1001E0005A601A46526842F4E8125A601A46126877
:1001F00042F080721A6000BF444A126812F0007F19
:10020000FAD0424A526822F00302404B5A601A4622
:10021000526842F002025A6000BF3C4A526802F043
:100220000C02082AF9D1704710B5FFF79DFF10BDE9
:1002300010B53648006840F00100344908600846AF
:1002400040683449084031494860084600683249EE
:1002500008402E4908600846006820F480200860A5
:100260000846406820F4FE0048604FF41F00886094
:10027000FFF7DAFF4FF000602849086010BD10B5A5
:10028000002100200022214B5B6803F00C0121B10A
:10029000042906D0082928D107E0214B214C2360EE
:1002A00027E01F4B1F4C236023E0184B5B6803F4CF
:1002B0007010164B5B6803F48032022303EB90400E
:1002C00022B9194B4343174C23600DE00F4B5B6879
:1002D00013F4003F04D0144B4343124C236003E05B
:1002E0000F4B43430F4C236003E00D4B0D4C236039
:1002F00000BF00BF054B5B68C3F303130B4CE15C0D
:10030000084B1B68CB40074C236010BD0010024017
:10031000002002400000FFF8FFFFF6FE08ED00E0BD
:1003200000127A000000002000093D0004000020B7
:1003300036490143364A1160704770B500210023E9
:100340000F22C4784CB3324C246804F4E064C4F542
:10035000E0644FEA1421C1F1040322FA01F2447867
:1003600004FA03F1847804EA020444EA01014FEA42
:100370000111284C0678A155047804F01F054FF0B0
:10038000010404FA05F405784FEA65154FF0E026FC
:1003900006EB8505C5F8004109E0047804F01F0567
:1003A0000124AC401C4D0678761145F8264070BDFE
:1003B0001A4A0A4002431A4B1A60704741B1194A5F
:1003C000126842EA00024FF0E023C3F8102D07E064
:1003D000144A126822EA00024FF0E023C3F8102DFD
:1003E0007047042808D14FF0E021096941F0040169
:1003F0004FF0E022116107E04FF0E021096921F0A0
:1004000004014FF0E0221161704700000000FA057E
:100410000CED00E000E400E080E100E080FFFF1F61
:1004200008ED00E010ED00E010B50446F848844205
:1004300008D10121401500F03CFF0021601500F0BB
:1004400038FF17E0F348844208D10121001500F07D
:1004500030FF0021201500F02CFF0BE0EE48844215
:1004600008D10121C80300F024FF00214FF400400F
:1004700000F01FFF10BD30B5024600200023506879
:10048000E64C20400D790C6844EA05242043506076
:100490009068E34C2040D1E902542C434D7944EA62
:1004A000450420439060D06A20F470000C7C641EE8
:1004B000E4B2234340EA0350D06230BD0021016022
:1004C000017141718160C16001210174704721B1E6
:1004D000826842F00102826003E0826822F0010239
:1004E0008260704721B1826842F48072826003E0CA
:1004F000826822F480728260704710B50023CBB20C
:100500001AB144681C43446002E044689C43446060
:1005100010BD816841F008018160704701460020EC
:100520008A6812F0080F01D0012000E00020704717
:10053000816841F0040181607047014600208A68AB
:1005400012F0040F01D0012000E00020704721B11B
:10055000826842F4A002826003E0826822F4A00272
:1005600082607047014600208A6812F4800F01D033
:10057000012000E00020704710B50A46002100234A
:10058000416821F46041531E41EA4331416010BD8E
:1005900021B1426842F40062426003E0426822F402
:1005A000006242607047F0B504460D46002000210D
:1005B000092D11DDE068A5F10A0606EB46070726BE
:1005C00006FA07F18843A5F10A0606EB460603FA88
:1005D00006F10843E0600CE0206905EB45070726BB
:1005E00006FA07F1884305EB450603FA06F10843CE
:1005F0002061072A0FDA606B561E06EB86071F265E
:1006000006FA07F18843561E06EB860605FA06F140
:100610000843606322E00D2A0FDA206BD61F06EB39
:1006200086071F2606FA07F18843D61F06EB8606C3
:1006300005FA06F10843206310E0E06AA2F10D0616
:1006400006EB86071F2606FA07F18843A2F10D067E
:1006500006EB860605FA06F10843E062F0BD21B11B
:10066000826842F48012826003E0826822F4801281
:10067000826070470146C86C80B270476948006864
:10068000704721B1426842F48062426003E04268F0
:1006900022F480624260704721B1426842F4805285
:1006A000426003E0426822F48052426070470A468A
:1006B0000021816821F4E04111438160704721B13C
:1006C000826842F40042826003E0826822F40042C1
:1006D0008260704721B1826842F40212826003E0B6
:1006E000826822F4021282607047014600208A6804
:1006F00012F4001F01D0012000E000207047F0B587
:1007000004461546002000220026092911DDE06874
:10071000A1F10A0707EB470C072707FA0CF29043F1
:10072000A1F10A0707EB470703FA07F21043E0605D
:100730000CE0206901EB410C072707FA0CF290430B
:1007400001EB410703FA07F210432061A06BC0F3ED
:100750000156EF1C06F1010CA7EB0C0707EB870C09
:100760001F2707FA0CF29043EF1C06F1010CA7EBD0
:100770000C0707EB870701FA07F21043A063F0BDEF
:1007800010B50A4600210023816B21F44011531E4D
:1007900041EA0351816310BD10B5002303460B44A9
:1007A0001A6010BD02460023134601F128000344DD
:1007B000186880B270470A46002141681A4B1940F8
:1007C0001143416070474162826270470A460021CE
:1007D000416821F01F0111434160704738B113494E
:1007E000096841F40001124AC2F8081406E00F49F2
:1007F000096821F400010E4AC2F808147047024645
:10080000002013680B4201D0012000E00020704757
:100810000024014000280140003C0140FFFEF0FFA1
:10082000FDF7F1FF4C240140FFFD3FFF082401408C
:1008300000200140CA430260704770B502460020A4
:10084000002300240B125568CEB205EA0604156891
:100850001D4202D00CB1012000E0002070BD00223A
:100860000A12D3430360704710B50446CA48844255
:1008700008D10121042000F01CFD0021042000F01B
:1008800018FD46E0C548844208D10121082000F047
:1008900010FD0021082000F00CFD3AE0C048844221
:1008A00008D10121102000F004FD0021102000F0EB
:1008B00000FD2EE0BB48844208D10121202000F039
:1008C000F8FC0021202000F0F4FC22E0B64884422D
:1008D00008D10121402000F0ECFC0021402000F074
:1008E000E8FC16E0B148844208D10121802000F0E4
:1008F000E0FC0021802000F0DCFC0AE0AC488442EF
:1009000007D10121801500F0D4FC0021A01500F0D2
:10091000D0FC10BD10B50121084600F0CAFC002132
:10092000012000F0C6FC10BD2DE9F0410246002573
:100930000026002000230024002791F803C00CF0BB
:100940000F0591F803C01CF0100F03D091F802C0FE
:100950004CEA0505B1F800C01CF0FF0F31D0146857
:1009600000202BE04FF0010C0CFA00F3B1F800C0AE
:100970000CEA03069E4220D183004FF00F0C0CFAC4
:1009800003F7BC4305FA03FC4CEA040491F803C0E6
:10099000BCF1280F06D14FF0010C0CFA00FCC2F894
:1009A00014C00AE091F803C0BCF1480F05D14FF024
:1009B000010C0CFA00FCC2F810C0401C0828D1D36E
:1009C0001460B1F800C0BCF1FF0F34DD54680020A2
:1009D0002EE000F1080C4FF0010808FA0CF3B1F812
:1009E00000C00CEA03069E4221D183004FF00F0C99
:1009F0000CFA03F7BC4305FA03FC4CEA040491F833
:100A000003C0BCF1280F05D100F1080C08FA0CF85E
:100A1000C2F8148091F803C0BCF1480F07D100F16F
:100A2000080C4FF0010808FA0CF8C2F81080401CBE
:100A30000828CED35460BDE8F0814FF6FF710180E5
:100A4000022181700421C170704702460020936822
:100A50000B4201D0012000E0002070470146886869
:100A600080B2704702460020D3680B4201D00120BB
:100A700000E0002070470146C86880B270470161FD
:100A80007047416170470AB1016100E04161704700
:100A9000C16070474FF480320A4382618161826194
:100AA00082698269704702460020424B18684FF6FF
:100AB0008073184040EA021008433E4B18607047AC
:100AC0003D49C8617047F0B50A4600230024002163
:100AD000002500F00046B6F1004F02D1354EF16915
:100AE00001E0344E7168C0F3034583B200F4401650
:100AF000B6F5401F08D121F070612E4E766826F0C1
:100B000070662C4F7E6012E000F48016B6F5801FF0
:100B100006D1032606FA05F4A14341F0706106E010
:100B2000460D360103FA06F6B14341F0706122B179
:100B3000460D360103FA06F6314300F00046B6F1E1
:100B4000004F02D11B4EF16101E01A4E7160F0BD01
:100B500030B500228B071C0F0F2303FA04F2154B4C
:100B600008338C1053F824309343124C08348D1002
:100B700044F8253023468C1053F824308C07240F7A
:100B800000FA04F423430B4C08348D1044F825304C
:100B900030BD0A490860704700080140000C014060
:100BA000001001400014014000180140001C0140E9
:100BB000002001400000014000002042DC002042F3
:100BC00010B50446F648844209D10121480500F0D9
:100BD0007DFB00214FF4001000F078FB08E00121BC
:100BE000880500F073FB00214FF4800000F06EFBDD
:100BF00010BD2DE9F04385B004460D460026B146F0
:100C00000427DFF8A083A6884FF6C0710E4068461F
:100C100000F0C8FADDF80880E348B8FBF0F01FFAEE
:100C200080F946EA0906A68020884FF6FE71084042
:100C300020800026DD49286888420CD828684000BA
:100C4000B8FBF0F087B2042F00DA04273E4309F125
:100C50000100208427E0E888A0F53F41FF3906D154
:100C6000286800EB4000B8FBF0F087B209E0286884
:100C700000EBC00101EB0010B8FBF0F087B247F4C5
:100C800080473805000D01D147F0010747F40040C7
:100C900006434FF4967009FB00F04FF47A7190FB15
:100CA000F1F0401C2084A683208840F001002080C1
:100CB00026884FF6F5310E40A88869890843064317
:100CC0002680A88929890843208105B0BDE8F083E2
:100CD00041F288310160002181804BF6FF71C180B3
:100CE0000021018141814FF480418181704721B110
:100CF000028842F00102028004E002884FF6FE738F
:100D00001A400280704721B1828842F400628280DA
:100D100004E082884FF2FF731A408280704721B14D
:100D2000828842F48052828004E082884EF6FF730B
:100D30001A408280704721B1028842F4807202809A
:100D400004E002884FF6FF631A400280704721B129
:100D5000028842F40072028004E002884FF6FF53DA
:100D60001A400280704721B1028842F480620280FA
:100D700004E002884FF6FF331A40028070470A46AB
:100D8000002181894FF60173194002F0FE031943D7
:100D90008181704721B1828942F00102828104E0A1
:100DA00082894FF6FE731A408281704721B1028812
:100DB00042F04002028004E002884FF6BF731A40FE
:100DC0000280704710B51AB183880B43838004E01A
:100DD0008388CC43A4B22340838010BD0182704736
:100DE0000146088AC0B2704712B141F0010102E029
:100DF0004FF6FE73194001827047024600231346E6
:100E00000B441888704721B1028842F400420280E6
:100E100003E00288C2F30E0202807047B1F5006F52
:100E200004D1028842F40062028004E002884FF29A
:100E3000FF731A4002807047B1F5005F04D1028849
:100E400042F40052028004E002884DF6FF731A401B
:100E50000280704721B1028842F48052028004E08F
:100E600002884EF6FF731A4002807047B1F5006F9A
:100E700004D1028842F40062028004E002884FF24A
:100E8000FF731A400280704721B1028842F02002AD
:100E9000028004E002884FF6DF731A400280704738
:100EA0000146088B0012704721B1028842F01002FF
:100EB000028004E002884FF6EF731A400280704708
:100EC00021B9028842F08002028004E002884FF6D5
:100ED0007F731A4002807047B1F5804F05D0828B36
:100EE0004BF6FF731A40828303E0828B42F4804208
:100EF0008283704770B5024600240025002300203D
:100F0000958A138B1B0445EA030626F07F4404EA06
:100F100001068E4201D1012000E0002070BD10B515
:100F200001460020002300228B8A0A8B120443EA28
:100F3000020424F07F4010BD30B503460020002499
:100F400000221A460C0F21F07F410CB1143201E04F
:100F5000090C183215680D4201D0012000E0002074
:100F600030BD002221F07F42D3438382704730B5E9
:100F7000024600200023948801F0E06504EA15434E
:100F800021F07F41948A0C4202D00BB1012000E095
:100F9000002030BD002221F07F42D343838270477E
:100FA0000054004000127A0040420F00A086010069
:100FB000DB48006840F00100D949086008464068F5
:100FC000D8490840D649486008460068D6490840D4
:100FD000D34908600846006820F48020086008466D
:100FE000406820F4FE0048604FF41F00886070479E
:100FF000CB49096821F48031C94A1160114609685A
:1010000021F480211160B0F5803F03D0B0F5802F2E
:101010000ED106E0C249096841F48031C04A11602E
:1010200007E0BF49096841F4A021BD4A116000E012
:1010300000BF00BF704710B501460022002300200A
:101040004A11012A02D1B64C236806E0022A02D1D5
:10105000B34C236A01E0B24C636A01F01F02012421
:1010600094401C4201D0012000E0002010BD70B56A
:1010700000240025002600BF3120FFF7DCFF0646D4
:10108000641CB4F5A06F01D0002EF5D03120FFF71D
:10109000D2FF08B1012500E00025284670BD0146B9
:1010A00000209F4A106820F0F80040EAC10010605C
:1010B00070479E490860704702460020984B586868
:1010C00020F47C1042EA01031843954B58607047A6
:1010D00096490866704701460020914A506820F002
:1010E00003000843506070478D48406800F00C00D2
:1010F0007047014600208A4A506820F0F0000843FB
:101100005060704701460020854A506820F4E06036
:1011100008435060704701460020814A506820F41F
:10112000605040EAC1005060704729B17C4A527A51
:1011300002437B4B5A7206E0794A527AC343DBB2D0
:101140001A40774B5A7270477949086070470146D8
:101150000020734A506820F44040084350607047B4
:101160000021744A11706E4A82F82010012802D0C2
:10117000042808D103E001216E4A117004E0052122
:101180006C4A117000E000BF00BF70476A490860F8
:1011900070476349096A0143614A116270476749B0
:1011A0000860704730B500210022002400235C4D08
:1011B0006D6805F00C0121B1042905D0082923D15F
:1011C00005E05F4D056022E05D4D05601FE0544D78
:1011D0006D6805F47012524D6D6805F48034022577
:1011E00005EB92421CB9574D554305600BE04C4D41
:1011F0006D6815F4003F03D0524D5543056002E081
:101200004F4D5543056002E04D4D056000BF00BFE6
:10121000434D6D6805F0F00109094B4D6B5C0568A5
:10122000DD4045603E4D6D6805F4E061090A464DBC
:101230006B5C4568DD408560394D6D6805F4605133
:10124000C90A414D6B5C4568DD40C560344D6D6831
:1012500005F44041890B3D4D6B5CC568B5FBF3F56A
:10126000056130BD29B12E4A526902432C4B5A61A7
:1012700004E02B4A52698243294B5A61704729B1D5
:10128000274A92690243264B9A6104E0244A9269F4
:101290008243234B9A61704729B1214AD2690243A4
:1012A0001F4BDA6104E01E4AD26982431C4BDA61AB
:1012B000704729B11A4AD2680243194BDA6004E038
:1012C000174AD2688243164BDA60704729B1144A34
:1012D00012690243124B1A6104E0114A12698243F7
:1012E0000F4B1A6170471A49086070470F49C8646C
:1012F00070470B49C87170470948406A40F08070D8
:1013000007494862704701460020054A92680A4230
:1013100001D0012000E00020704701498872704729
:10132000001002400000FFF8FFFFF6FE00004242FE
:10133000D800424220100240800442423C04424213
:1013400000127A0000093D00140000202400002053
:101350004004424210B50446FF48844208D10121AE
:10136000C014FFF7A6FF0021E014FFF7A2FFC4E0BE
:10137000B4F1804F08D101210846FFF7A7FF0021F3
:101380000120FFF7A3FFB8E0F448844208D101210F
:101390000220FFF79BFF00210220FFF797FFACE040
:1013A000EF48844208D101210420FFF78FFF00217C
:1013B0000420FFF78BFFA0E0EA48844208D1012116
:1013C0000820FFF783FF00210820FFF77FFF94E04C
:1013D000E548844208D101211020FFF777FF002162
:1013E0001020FFF773FF88E0E048844208D1012114
:1013F0002020FFF76BFF00212020FFF767FF7CE034
:10140000DB48844208D101214014FFF752FF00213C
:101410006014FFF74EFF70E0D648844209D10121E5
:10142000C804FFF746FF00214FF40020FFF741FFFB
:1014300063E0D148844209D101210805FFF739FF53
:1014400000214FF48010FFF734FF56E0CB48844270
:1014500009D101214805FFF72CFF00214FF40010AE
:10146000FFF727FF49E0C648844208D10121402008
:10147000FFF72CFF00214020FFF728FF3DE0C14887
:10148000844208D101218020FFF720FF0021802025
:10149000FFF71CFF31E0BC48844208D101218015D0
:1014A000FFF714FF0021A015FFF710FF25E0B74854
:1014B000844209D101210804FFF7FBFE00214FF40B
:1014C0008030FFF7F6FE18E0B148844209D10121CF
:1014D0004804FFF7EEFE00214FF40030FFF7E9FE6D
:1014E0000BE0AC48844208D101218804FFF7E1FEFB
:1014F00000214FF48020FFF7DCFE10BD002202889F
:10150000954B98420ED09A4B98420BD0B0F1804F39
:1015100008D0924B984205D0914B984202D0914B03
:10152000984204D14FF68F731A404B881A438E4B62
:10153000984207D08D4B984204D04FF6FF431A4093
:10154000CB881A4302808B8883850B880385824B66
:1015500098420BD0864B984208D08C4B984205D0CD
:101560008B4B984202D08B4B984201D10B7A038669
:1015700001238382704770B5002400220023058C6C
:101580004FF6FE7635400584028C8388048B4FF637
:101590008F752C40B51E2C400D882C43751E2A409B
:1015A0000D892A434D882A436B4DA8420BD0704DBC
:1015B000A84208D0754DA84205D0754DA84202D06A
:1015C000744DA84213D14FF6F7752A404D892A432E
:1015D0004FF6FB752A408D882A434FF6FF652B4056
:1015E0004FF6FF552B408D892B43CD892B438380AC
:1015F0000483CD888586028470BD70B500240022E6
:101600000023058C4FF6EF7635400584028C8388E5
:10161000048B48F6FF752C404FF6FF452C400D8893
:101620002D0644EA15444FF6DF752A400D892D0535
:1016300042EA15424D882D0542EA1542464DA84220
:1016400002D04B4DA8421BD14FF67F752A404D89E1
:101650002D0542EA15424FF6BF752A408D882D05AB
:1016600042EA15424FF6FF352B404FF2FF752B40F3
:101670008D89AD0443EA1543CD89AD0443EA154392
:1016800083800483CD880587028470BD70B50024F3
:1016900000220023058C4FF6FF6635400584028C3E
:1016A0008388848B4FF68F752C404FF6FC752C4049
:1016B0000D882C434FF6FF552A400D892D0642EA2E
:1016C00015424D882D0642EA1542234DA84202D00C
:1016D000274DA8421BD14FF2FF752A404D892D0698
:1016E00042EA15424FF6FF352A408D882D0642EA20
:1016F00015424EF6FF752B404DF6FF752B408D8938
:101700002D0543EA1543CD892D0543EA1543838012
:101710008483CD888587028470BD70B50022002344
:101720000024058C4EF6FF7635400584038C8488B2
:10173000828B48F6FF752A404FF6FF452A400D88F8
:101740002D0642EA15424DF6FF752B400D892D07F7
:1017500043EA15434D881FE0002C0140000400407F
:1017600000080040000C0040001000400014004041
:1017700000340140004C0140005001400054014041
:1017800000180040001C00400020004000400140C4
:1017900000440140004801402D0743EA1543F94D3C
:1017A000A84202D0F84DA84206D14BF6FF752C4056
:1017B0008D89AD0544EA154484808283CD88A0F8E4
:1017C0004050038470BD828B4FF2FF331A408283F6
:1017D000828B0B0642EA134282837047F0B50C46B7
:1017E0001546002200210026078C4EF6FF7C07EAF2
:1017F0000C070784828B018C27073E0C40F6FF47BD
:101800003A402F0642EA17421F0742EA1742DD4FCD
:10181000B8420ED0DC4FB8420BD0B0F1804F08D0A8
:10182000DA4FB84205D0DA4FB84202D0D94FB842A9
:1018300006D14DF6FF77394046F48057394305E02D
:1018400047F6FF57394044F4805739438283018477
:10185000F0BD828B4FF6F3731A408283828B0A436A
:1018600082837047F0B50C46154600220021002601
:10187000078C4FF6FF6C07EA0C070784828B018CFC
:1018800027063E0C4FF60C773A401F0545EA1747EE
:101890003A43BC4FB8420ED0BB4FB8420BD0B0F168
:1018A000804F08D0B94FB84205D0B94FB84202D0E6
:1018B000B84FB84206D14FF6FF57394046F480770B
:1018C000394305E04FF2FF57394044F480773943FC
:1018D00082830184F0BD028B4FF2FF331A400283F2
:1018E000028B0B0642EA134202837047F0B50C46A6
:1018F0001546002200210026078C4FF6EF7C07EAF0
:101900000C070784028B018C27053E0C40F6FF472D
:101910003A401F0742EA17422F0642EA1742994F00
:10192000B8420ED0984FB8420BD0B0F1804F08D0DB
:10193000964FB84205D0964FB84202D0954FB84264
:1019400006D14FF6DF77394046F01007394305E0FE
:101950004FF65F77394044F0100739430283018422
:10196000F0BD028B4FF6F3731A400283028B0A43D9
:1019700002837047F0B50C46154600220021068C04
:101980004FF6FE773E400684028B018C4FF60C76B4
:1019900032401E0545EA164632437A4EB0420ED01A
:1019A000794EB0420BD0B0F1804F08D0774EB042A4
:1019B00005D0774EB04202D0764EB04206D14FF6F7
:1019C000FD76314044F00106314305E04FF6F576EF
:1019D000314044F00106314302830184F0BD70B50B
:1019E00005460C46674885420ED0674885420BD0B5
:1019F000B5F1804F08D06548854205D064488542DE
:101A000002D06448854200D100E000BF208850B970
:101A10002389A28861882846FFF7ACFFE188284621
:101A2000FFF79FFF25E0208804280AD12389A28898
:101A300061882846FFF75AFFE1882846FFF74BFFE9
:101A400017E0208808280AD12389A28861882846BF
:101A5000FFF708FFE1882846FFF7FBFE09E023892E
:101A6000A28861882846FFF7B9FEE1882846FFF77B
:101A7000AAFE70BD2DE9F04105460C46002601275F
:101A8000608808B9022600E00026A088012801D15C
:101A9000022700E001272088A0B92389A288618855
:101AA0002846FFF767FFE1882846FFF75AFF23899A
:101AB0003A4631462846FFF719FFE1882846FFF7E6
:101AC0000AFF13E02389A28861882846FFF70EFFEA
:101AD000E1882846FFF7FFFE23893A46314628462B
:101AE000FFF748FFE1882846FFF73BFFBDE8F0819C
:101AF0000A884B881A438B881A43CB881A430B8970
:101B00001A434B891A438B891A43A0F84420704723
:101B10004FF6FF71818000210180C18041800172F8
:101B200070470021018041808180C1800181418115
:101B30008181C18170470021018041800121818024
:101B40000021C18001817047002101804180818096
:101B5000C180018141818181704721B1028842F0B9
:101B60000102028004E002884FF6FE731A400280F0
:101B7000704789B1B0F8442042F40042A0F84420F4
:101B800010E00000002C014000340140000400403F
:101B900000080040000C0040B0F84420C2F30E02E0
:101BA000A0F84420704710B51AB183890B43838194
:101BB00004E08389CC43A4B22340838110BD818299
:101BC000704741EA0203A0F84830704710B51AB1D7
:101BD00083890B43838104E08389CC43A4B22340EF
:101BE000838110BD01894FF6F87211400181704761
:101BF0000A46002101894FF68F7319401143018174
:101C0000704730B504460D4629462046FFF7F0FFE1
:101C1000208940F00700208130BD2DE9F0410446C5
:101C20000D4616461F46602D06D13B460122314621
:101C30002046FFF75BFE05E03B4601223146204689
:101C4000FFF798FE29462046FFF7D2FF208940F093
:101C500007002081BDE8F08130B50C4600210189E4
:101C6000C9B21D0642EA154525432943018130BD0D
:101C70002DE9F04105460E46174698460024434696
:101C80003A4631462846FFF7E7FF2C894FF6F871B0
:101C90000C4044F007044FF68F710C4044F0700480
:101CA0002C81BDE8F081F0B504460D4616461F466E
:101CB0003B46324629462046FFF7CEFF208940F4B6
:101CC00080402081F0BD0185828270470A46002154
:101CD00001884FF68F731940114301807047F0B5AA
:101CE0000C4615461E460021002200230189028B66
:101CF000038C4FF6F877394021434FF6FC473A40C2
:101D000040F201173A434FF6DD773B40370545EA8D
:101D100017473B43018102830384F0BD0A4600213B
:101D2000018B4FF68F7319401143018370470A46A8
:101D30000021018B48F6FF731940130641EA134155
:101D4000018370470A460021818B4FF68F7319403B
:101D50001143818370470A460021818B48F6FF7347
:101D60001940130641EA13418183704721B102886B
:101D700042F08002028004E002884FF67F731A402E
:101D80000280704721B1828842F00402828004E020
:101D900082884FF6FB731A408280704721B1828897
:101DA00042F00802828004E082884FF6F7731A40FE
:101DB0008280704721B1828842F00102828004E073
:101DC00082884FF6FE731A40828070470A460021CF
:101DD000018B4FF6F77319401143018370470A4690
:101DE0000021018B4FF2FF731940130641EA1341A2
:101DF000018370470A460021818B4FF6F773194023
:101E00001143818370470A460021818B4FF2FF7393
:101E10001940130641EA1341818370470A460021A5
:101E2000018B4FF6FB7319401143018370470A463B
:101E30000021018B4FF6FF331940130641EA13418D
:101E4000018370470A460021818B4FF6FB731940CE
:101E50001143818370470A460021818B4FF6FF337F
:101E60001940130641EA1341818370470A46002155
:101E7000018B4FF67F7319401143018370470A4667
:101E80000021018BC1F30E01130641EA13410183C6
:101E900070470A460021818B4FF67F73194011432A
:101EA000818370470A460021818BC1F30E0113061E
:101EB00041EA1341818370470A460021018C4FF6A5
:101EC000FD7319401143018470470A460021018CBB
:101ED0004FF6F77319401143018470470A460021F9
:101EE000018C4FF6DF731940130541EA1341018459
:101EF00070470A460021018C4FF67F731940130585
:101F000041EA1341018470470A460021018C4FF6D3
:101F1000FF531940130641EA1341018470470A46F2
:101F20000021018C4FF2FF731940130641EA13415F
:101F3000018470470A460021018C4DF6FF73194059
:101F4000130741EA13410184704730B5002301248F
:101F50008C40A3B2048CDD43ADB22C400484048CCD
:101F600002FA01F5ADB22C43048430BD30B5002334
:101F700004248C40A3B2048CDD43ADB22C40048415
:101F8000048C02FA01F5ADB22C43048430BD70B567
:101F90000346002000241846183001258D40ACB2BD
:101FA0001D8CE643B6B235401D8409B1082909D11C
:101FB00000EB6100056825F07005056005681543B4
:101FC00005600CE00D1FADB200EB6500056825F45F
:101FD000E04505600568160645EA1645056070BDD2
:101FE00021B1028842F00202028004E002884FF62A
:101FF000FD731A400280704721B1028842F004024A
:10200000028004E002884FF6FB731A40028070479A
:1020100021B1828842F08002828004E082884FF6FB
:102020007F731A408280704702884FF6F7731A4018
:10203000028002880A430280704782884FF68F73BD
:102040001A40828082880A438280704702894FF654
:10205000F8731A40028102890A430281704702899B
:102060004FF67F731A40028102890A43028170474A
:1020700081847047818570478186704701877047EA
:1020800081877047A0F84010704702884FF6FF43E1
:102090001A40028002880A43028070470146888EF7
:1020A00070470146088F70470146888F7047014688
:1020B000B1F8400070470146888C70470146088D92
:1020C000704702460020138A0B4201D0012000E035
:1020D00000207047CA430282704730B50246002094
:1020E00000230024158A05EA0103958905EA010405
:1020F00013B10CB1012000E0002030BDCA430282C0
:102100007047000010B50446FC48844209D1012103
:102110008803FFF7CEF800214FF48040FFF7C9F89D
:1021200032E0F748844209D101214804FFF7CEF894
:1021300000214FF40030FFF7C9F825E0F148844250
:1021400009D101218804FFF7C1F800214FF4802054
:10215000FFF7BCF818E0EC48844209D10121C8041B
:10216000FFF7B4F800214FF40020FFF7AFF80BE0C1
:10217000E648844208D101210805FFF7A7F80021AD
:102180004FF48010FFF7A2F810BD2DE9F04786B09C
:1021900005460E460024A24600BFA1460027B0898E
:1021A00000B100BF2F462C8A4CF6FF700440F08827
:1021B00004432C82AC894EF6F3100440B088318978
:1021C0000843718908430443AC81AC8A4FF6FF4051
:1021D0000440B0890443AC8201A8FEF7E3FFC7487E
:1021E000874202D1DDF810A001E0DDF80CA0A8893B
:1021F00010F4004F08D00AEBCA0000EB0A10316857
:102200004900B0FBF1F807E00AEBCA0000EB0A1046
:1022100031688900B0FBF1F86420B8FBF0F00401EC
:102220002009642101FB1089A88910F4004F08D00F
:10223000322000EBC900B0FBF1F000F007000443CE
:1022400008E0322000EB09106421B0FBF1F000F04F
:102250000F0004432C8106B0BDE8F0874FF41651FF
:10226000016000218180C18001810C214181002118
:102270008181704710B502460020108A4FF2FF039B
:1022800018400B884C8823438C882343CC882343F5
:102290001843108210BD0021018041808180C180DF
:1022A000704721B1828942F40052828104E0828920
:1022B0004DF6FF731A4082817047F0B50346002443
:1022C000002600250020A1F510676A3F00D100BF5D
:1022D0001846C1F3421401F01F06012707FA06F55C
:1022E000012C01D10C3004E0022C01D1103000E0AF
:1022F00014301AB107682F43076002E00768AF4344
:102300000760F0BD10B51AB1838A0B43838204E0E5
:10231000838ACC43A4B22340838210BD028A4FF645
:10232000F0731A400282028A0A430282704782894D
:102330004FF2FF731A40828182890A43828170477B
:1023400021B1828942F00202828104E082894FF643
:10235000FD731A4082817047028A4FF6DF731A407C
:102360000282028A0A430282704721B1028A42F441
:102370008042028204E0028A4BF6FF731A40028216
:102380007047C1F308028280704701468888C0F315
:1023900008007047818941F0010181817047028BFB
:1023A000D2B20283028B42EA012202837047028B7F
:1023B00002F47F420283028B0A430283704721B1F9
:1023C000828A42F02002828204E0828A4FF6DF7322
:1023D0001A408282704721B1828A42F010028282C2
:1023E00004E0828A4FF6EF731A408282704721B16F
:1023F000828A42F00802828204E0828A4FF6F773F2
:102400001A408282704721B1828942F4004282815F
:1024100003E08289C2F30E028281704721B1828A71
:1024200042F40062828204E0828A4FF2FF731A4013
:1024300082827047828A4FF6FB731A408282828AB8
:102440000A438282704721B1828A42F0020282826C
:1024500004E0828A4FF6FD731A408282704702467A
:102460000020B1F5007F00D100BF13880B4201D0DE
:10247000012000E00020704701F40072B2F5007FF7
:1024800000D100BFCA430280704770B502460024E5
:10249000002300250020A1F510666A3E00D100BF90
:1024A000C1F3421501F01F03012606FA03F3012DC3
:1024B00002D19689334006E0022D02D1168A3340BC
:1024C00001E0968A33400C12012606FA04F41688BD
:1024D000344013B10CB1012000E0002070BD10B5F4
:1024E00000220023A1F510646A3C00D100BF0A124B
:1024F00001249440A3B2DC43048010BD00380140A5
:102500000044004000480040004C004000500040A3
:1025100000BF03F03FF803F05EF802F00BFA02F0A0
:1025200098FA00F00DFE00F011FE03F016F903F02A
:102530001AF903F01DFB03F054FB03F03AF903F022
:1025400068F900F03FF800F07CF800F0A4F800F023
:102550008DF801F071F9022001F0EFFE00F07BFB35
:1025600003E002F0B9FF02F0CBFFFAE7704714E096
:102570000F4800F021F84FF480510E48FEF77FFA23
:102580004FF400510B48FEF77CFA094800F014F8AC
:102590004FF400510748FEF772FAE9E700BFFEE783
:1025A00000BFFEE700BFFEE77047704770470000BE
:1025B000FFFF0F000010014000E0401E0028FCD18A
:1025C0007047000000B585B0012144F20400FEF719
:1025D00056FE4FF40070ADF8100018208DF813006F
:1025E00003208DF8120004A9B348FEF79DF94FF4BB
:1025F0008060ADF8100004208DF8130004A9AE48E7
:10260000FEF792F94FF4165000900020ADF8040048
:10261000ADF80600ADF80800ADF80C000C20ADF8E0
:102620000A006946A548FFF7B0FD012240F2255196
:10263000A248FFF742FE0121A048FFF732FE05B095
:1026400000BD08B54FF44070FDF772FE25208DF8EF
:1026500000000A208DF8010000208DF80200012002
:102660008DF803006846FDF768FE08BD08B54FF415
:102670004070FDF75DFE34208DF800000E208DF8CF
:10268000010000208DF8020001208DF8030068464B
:10269000FDF753FE08BD00B585B001211020FEF7FF
:1026A000EEFD0121C804FEF7F7FD4FF48060ADF8A0
:1026B000100018208DF8130003208DF8120004A9D3
:1026C0007F48FEF731F94FF40060ADF810000420A8
:1026D0008DF8130004A97A48FEF726F94FF4165036
:1026E00000900020ADF80400ADF80600ADF8080039
:1026F000ADF80C000C20ADF80A0069467148FFF7F0
:1027000044FDFFF7B3FF012240F225516D48FFF76A
:10271000D4FD01216B48FFF7C4FD40216948FFF754
:10272000ABFE05B000BD70B504460D46E1B263488E
:10273000FFF727FE00BF40216048FFF790FE00280A
:10274000F9D0204670BD10B5044600BF20215B487B
:10275000FFF785FE0028F9D05848FFF716FE10BD98
:1027600070B504460D4600BF40212846FFF777FEAE
:102770000028F9D021462846FFF703FE70BD70B54A
:1027800004460D4604E014F8010B2946FFF7E8FF64
:1027900020780028F7D170BD2DE9FC4704468A4611
:1027A000494903C9CDE90001484894FBF0F100FB19
:1027B0001144002C3CDB42F2107094FBF0F03030FE
:1027C000C5B242F2107094FBF0F100FB11404FF4DF
:1027D0007A7190FBF1F0303000F0FF08084694FB6E
:1027E000F0F100FB1140642190FBF1F0303000F07B
:1027F000FF09642094FBF0F100FB11400A2190FBDB
:10280000F1F03030C7B20A2094FBF0F100FB114028
:102810003030C6B220208DF800008DF801508DF8C0
:1028200002808DF803908DF804708DF805603CE00F
:10283000644242F2107094FBF0F03030C5B242F2C4
:10284000107094FBF0F100FB11404FF47A7190FB93
:10285000F1F0303000F0FF08084694FBF0F100FB87
:102860001140642190FBF1F0303000F0FF0964204A
:1028700094FBF0F100FB11400A2190FBF1F03030A5
:10288000C7B20A2094FBF0F100FB11403030C6B211
:102890002D208DF800008DF801508DF802808DF804
:1028A00003908DF804708DF8056051466846FFF777
:1028B00066FFBDE8FC8700000008014000380140C9
:1028C00000100140004C0040886B0008A086010009
:1028D0002DE9F04F87B00026B34600200590049004
:1028E00040F22551FF48FFF7D0FD50B3FD48FFF7F8
:1028F0004CFDC6B2FC48008810F4004F30D1FA48B5
:10290000008810F4804F0BD1FF2E29D1F6480088A3
:1029100040F48040F44908800020F44908801FE01A
:10292000F2480088F249097888420BDAEF480088BB
:10293000C0F30D00EF490E54EC480088401CEB49F1
:1029400008800DE0FE2E05D00020E8490880E64909
:10295000088005E0E448008840F40040E24908802F
:10296000E148008810F4004F7ED00020DE49088046
:10297000E048C0780006DF49897840EA0140DD4937
:10298000497840EA0120DB4909780843DA490860C0
:10299000D848C0790006D749897940EA0140D5492D
:1029A000497940EA0120D34909790843D3490860AD
:1029B000D1480068D2490860D0480068D149086011
:1029C0000846006803F040FD04460022134603F069
:1029D00051FD06D1CA480068CB490860CB49086060
:1029E00064E0C748006803F02FFD04460022134648
:1029F00003F040FD1AD1C649C248006803F0B1FA9D
:102A0000814603F021FD074600224FF0804303F08A
:102A100034FC044603F056FDBB49086008460168D3
:102A2000BC4803F09EFAB94908603FE0B849B54890
:102A3000006803F096FA019003F006FD07460022B5
:102A40004FF0804303F019FC04460D46AC48006883
:102A500003F0FAFC814622462B4603F0F8FACDE952
:102A6000020103F02FFD00E050E0A7490860A849EB
:102A7000A448006803F075FA019003F0E5FC0446F1
:102A800000224FF0804303F0F8FB074688469C483D
:102A9000006803F0D9FC3A464346CDE9020103F051
:102AA00075FB814603F00EFD984908609648006862
:102AB00003F0CAFC0446984A984B03F06DFB81462C
:102AC0004FF08042964B03F067FB074603F0FAFC99
:102AD0008D4908608D48006803F0B6FC07468E4AB1
:102AE0008E4B03F059FB81464FF080428C4B03F034
:102AF00053FB044603F0E6FC844908608248006802
:102B000088490860814800688749086007B0BDE8C7
:102B1000F08F70B50025002440F225518348FFF75F
:102B2000B4FC38B34FF400518148FDF7AAFF7F4849
:102B3000FFF72BFCC5B27F48008810F4004F2ED160
:102B40007C48008810F4804F0CD00B2D03D000205F
:102B50007849088023E07748008840F400407549B0
:102B600008801CE00E2D06D17248008840F4804099
:102B70007049088013E06F480088C0F30D006E496B
:102B80000D546C480088401C6A4908806B480078E6
:102B9000401E0988884202DA00206649088065489C
:102BA000008810F4004F54D0002062490880624829
:102BB00000786149497800EB01205F49897800EB92
:102BC00001405D49C97800EB0164642C02DC14F11A
:102BD000640F00DA70BD0120594908705648007929
:102BE000062834D2DFE800F033031524252CB4F591
:102BF000B47F02DB4FF4B47403E014F5B47F00DC5F
:102C0000504C5148046001205049087050490870E8
:102C10001EE00A2C01DB0A2404E014F10A0F01DC97
:102C20006FF00904204603F097FB4A4908600FE063
:102C30000EE0204603F090FB064602F052FE07E04D
:102C4000204603F089FB064602F010FE00E000BFBC
:102C500000BF00BFBEE740490968C822B1FBF2F0DF
:102C6000B0F1807F00D31CE020F07F41491E4FF07F
:102C7000E022516100BF5117002905DA0F21090137
:102C8000364A0B23D15404E00F210901344A53176B
:102C9000D15400BF00214FF0E02291610721116162
:102CA00000BF704710B52F480078401C2D490870B0
:102CB0002D480088401C2C4908802C480078401C76
:102CC0002A4908702A480068401C2949086027489A
:102CD0000078642190FBF1F201FB120008B914485E
:102CE00048E04FE0003801402A0000202800002082
:102CF000340000202C000020400000204400002070
:102D0000480000204C0000203C000020380000203B
:102D100046B6F33E000080BF0C022B8796E19A4036
:102D2000E17A943F6401002038010020004C00400B
:102D300000100140500000205200002057000020E9
:102D40005800002098FEFFFF280200202C020020DF
:102D50002D020020940100200000002018ED00E06A
:102D600000E400E05C0000205A0000205D0000202C
:102D700060000020C06880F480506F49C860002067
:102D80006E4908706E48007804280CD100206C4908
:102D9000087002F06AFF01F001FB01F07BF800F01F
:102DA000E7FF02F0D9FA10BD10B5002400206549F4
:102DB00008826548006865490968884218DD6348EB
:102DC0000068401C614908605F4800680968441A4F
:102DD000204601F0F9F95E48006880F40070564919
:102DE000C1F80C084FF480615A48FDF748FE1DE019
:102DF0005548006855490968884217DA5348006801
:102E0000401E52490860504800680968441A6042F0
:102E100001F0DAF94E48006880F400704649C1F8C4
:102E20000C084FF480614B48FDF72BFE4A480068C0
:102E30004A490968884218DD48480068401C4749EB
:102E40000860454800680968441A204601F009FAFC
:102E50003F48006880F400503749C1F80C084FF42F
:102E600080413C48FDF70DFE1DE03B4800683B49B2
:102E70000968884217DA39480068401E37490860F7
:102E8000354800680968441A604201F0EAF93048A0
:102E9000006880F400502849C1F80C084FF48041C4
:102EA0002C48FDF7ECFD10BD10B502212C48FFF7B2
:102EB00014F901283ED102212948FFF71FF92948BA
:102EC000007860B90120274908702548FFF7E6F827
:102ED0002549088002212248FEF7EEFF2AE021481A
:102EE0000078012826D100201E4908701C48FFF7F1
:102EF000D5F81E490880084600881B490988884281
:102F000007DD1A48008818490988401A18490880BE
:102F100009E0154800884FF6FF71081A134909881F
:102F200008441349088001201249087000210C4808
:102F3000FEF7C2FF10BD0000001001405D00002040
:102F40005C00002000100040680200206C0200209D
:102F50000C18014000180140740200207802002083
:102F60000008004072000020700000206E00002069
:102F7000660000207D02002008B501210820FEF730
:102F80007EF901214805FEF787F9C020ADF8000061
:102F900001208DF802001C208DF803006946FF48CF
:102FA000FDF7C2FC4021FD48FDF76BFD08BD1FB5D4
:102FB0000020ADF804004BF6FF70ADF80600D020FD
:102FC000ADF808004FF48060ADF80A000001ADF8DC
:102FD0000C00F34800900121F248FDF788FE694695
:102FE000F048FDF706FE0121EE48FDF7BCFE1FBDCF
:102FF00070B504460D4600BF4FF40031E948FDF7B7
:103000009BFF0028F8D10121E648FDF794FE00BFA0
:10301000E549E448FDF76EFF0028F9D00022D021F1
:10302000E048FDF7E1FE00BFE049DE48FDF762FF42
:103030000028F9D02946DB48FDF7D0FE00BFDB4968
:10304000891CD848FDF756FF0028F8D02146D548FE
:10305000FDF7C4FE00BFD549891CD248FDF74AFFE1
:103060000028F8D00121CF48FDF771FE70BD70B582
:1030700005460E46144600BF4FF40031C948FDF71F
:103080005BFF0028F8D10121C648FDF754FE00BFC0
:10309000C549C448FDF72EFF0028F9D00022D021F1
:1030A000C048FDF7A1FE00BFC049BE48FDF722FFA2
:1030B0000028F9D00121BB48FDF719FEF1B2B9484B
:1030C000FDF78CFE00BFB949891CB648FDF712FF19
:1030D0000028F8D00121B348FDF72DFE00BFB2490A
:1030E000B048FDF707FF0028F9D00122D021AD48F4
:1030F000FDF77AFE00BFAC49491CAA48FDF7FAFE6D
:103100000028F8D015E0012C07D10021A548FDF7D3
:103110002AFE0121A348FDF71AFEA3493F31A14829
:10312000FDF7E8FE28B19F48FDF75AFE28706D1C98
:10313000641E002CE7D101219A48FDF714FE70BDF2
:1031400010B5FFF719FFFFF732FF10BD10B56B2167
:103150000020FFF74DFF19210720FFF749FF1A2133
:103160000620FFF745FF1B211820FFF741FF1C2118
:103170000120FFF73DFF10BD70B504460222214635
:103180008B48FFF774FF8A480578467806EB0520E0
:1031900080B270BD70B50446022221468448FFF714
:1031A00066FF83480578467806EB052080B270BD3F
:1031B00070B50446022221467D48FFF758FF7C483F
:1031C0000578467806EB052080B270BD70B50446E0
:1031D000022221467748FFF74AFF7648057846786D
:1031E00006EB052080B270BD70B504460222214670
:1031F0007048FFF73CFF6F480578467806EB0520DE
:1032000080B270BD2DE9F04105460C466A48016860
:10321000204602F0A0FE074668480168384602F0E2
:10322000A0FE064666480168304602F042FE644948
:103230000860644841686448006802F08CFE0646F5
:1032400060488168304602F086FE604908605D484B
:10325000C06880F0004048605A48C06880F0004074
:1032600088605B480068C86008685449096802F0D3
:1032700078FE064653480168304602F01AFE51496E
:103280000860524948684D49096802F06AFE0646DE
:103290004C484168304602F00CFE4A4948604B49B0
:1032A00088684649096802F05CFE06464548816820
:1032B000304602F0FEFD434988604449C8683F49F2
:1032C000096802F04EFE06463E48C168304602F0EC
:1032D000F0FD3C49C8603A480168284602F03BFED0
:1032E0003C4908603C48007803F03FF80646354802
:1032F0000168304602F035FE3849086036480078EB
:1033000003F033F806462F488168304602F029FE64
:10331000334908603048007803F027F807462F4803
:103320000168384602F01DFE06462E480168304608
:1033300002F0BFFD2C490860084601682748006874
:1033400002F045FE294908602748016824480068C2
:1033500002F03DFE264908602048006825490860C3
:103360001D48007803F001F80646164841683046CB
:1033700002F0F7FD204908601E4801681B480068FC
:1033800002F0EFFD06460F480168304602F0E6FD08
:103390000C4908601848016814482FE0000C0140EF
:1033A000801A06000054004001000300820007005C
:1033B000E4000020E6000020E80000209800002043
:1033C000D4000020A00000208C000020B0020020CB
:1033D00090000020EC0000209C000020F000002065
:1033E000F400002094000020F8000020FC000020E1
:1033F000000100200401002008010020006802F004
:10340000B0FD0646AF484168304602F0A7FDAD4921
:103410004860AD480168AD48006802F0A2FD06466C
:10342000A8488168304602F099FDA6498860A848FE
:103430000168A648006802F094FD0646A148C168EC
:10344000304602F08BFD9F49C860A2480168A2483F
:10345000006802F086FD0646A0480168304602F08A
:1034600028FD9E4908609B4801689848006802F062
:1034700078FD06469A480168304602F01AFD9849E0
:10348000086008460168204602F065FD064602F025
:103490008FFF00B293490880BDE8F0812DE9FF5FFE
:1034A0009148808920F001008F4988818F480088E9
:1034B00020F002004FF08041A1F80C088C48B0F8D1
:1034C0000C0820F020008A49A1F80C084FF0402099
:1034D000B0F80C0C20F020004FF04021A1F80C0CAB
:1034E00084480078012820D10020824908703B20C0
:1034F000FFF750FE04463B20FFF74CFE04443B2000
:10350000FFF748FE04443B20FFF744FE20444FF4FD
:103510004041A1EBA00000B2774908803F20FFF7AF
:103520002BFE404200B2754908803B20FFF732FE77
:1035300071490988084400B2714908803D20FFF7AD
:1035400037FE00B26F4908803F20FFF715FE6B4938
:103550000988084400B26C4908804520FFF736FE10
:1035600000B2604908804320FFF73EFE00B2674981
:1035700008805D48808940F001005B4988815B4894
:10358000008840F002004FF08041A1F80C08584834
:10359000B0F80C0840F020005549A1F80C084FF095
:1035A0004020B0F80C0C40F020004FF04021A1F872
:1035B0000C0C5348B0F9000002F0CEFE834652488E
:1035C000B0F9000002F0C8FE5946019002F0FFFC7D
:1035D000824602F039FFCDE9020103F09DF906466B
:1035E00000224B4B02F0D8FD80464A4A4A4B02F07B
:1035F00044FE044602F066FF484908603948B0F9C5
:10360000000002F0B7FE06464FF06632444B02F06F
:1036100034FE044602F0F9FE00B232490880384810
:10362000B0F9000002F098FE02903648B0F90000B0
:1036300002F092FE0190029902F0C9FC039002F0A0
:1036400003FF804603F068F904460022304B02F085
:10365000A3FD06462F4A304B02F00FFE824602F0D1
:1036600031FF3049086008460168006802F079FCC3
:1036700081462A480168006802F073FC8246494688
:1036800002F017FC804602F0DFFE064603F056FA11
:10369000044602F017FF244908601248B0F9000000
:1036A00002F05AFE214908600E48B0F9000002F00D
:1036B00053FE0446014619480068FFF7A3FDBDE824
:1036C000FF9F0000A0000020040100200001002056
:1036D00008010020EC000020FC000020D4000020A5
:1036E000E8000020C0000020001000400C0800404E
:1036F00000300140B4000020B6000020B8000020D7
:10370000BC000020BE000020BA000020C200002043
:10371000008066401F85EB51B81E0940C80000209C
:1037200066663040CC000020D000002088000020D9
:1037300070B505462021FA48FDF7A3F91021F84895
:10374000FDF79FF9002418E00421F548FDF799F9E9
:10375000C4F1070101208840284204D00821F04824
:10376000FDF78DF903E00821ED48FDF78AF9042102
:10377000EB48FDF784F9601CC4B2082CE4DB20217F
:10378000E748FDF77CF970BD70B505462021E44897
:10379000FDF777F91021E248FDF771F9002418E0F0
:1037A0000421DF48FDF76DF9C4F1070101208840CD
:1037B000284204D00821DA48FDF761F903E0082126
:1037C000D748FDF75EF90421D548FDF758F9601C8C
:1037D000C4B2082CE4DB2021D148FDF750F970BDBC
:1037E00010B52020FFF7A4FF0C20FFF7A1FF8020D9
:1037F000FFF79EFF002404E00020FFF7C5FF601CD8
:1038000084B2B4F5FC7FF7DB10BD08B501212020A0
:10381000FDF735FD10208DF8030003208DF8020020
:103820007C20ADF800006946BD48FDF77DF87C219D
:10383000BB48FDF724F908BD10B5FFF7E6FF4021AE
:10384000B748FDF71CF94021B548FDF71AF94820A3
:10385000FEF7B2FE4021B248FDF711F92021B04831
:10386000FDF70FF94820FEF7A7FE2120FFF760FFC4
:10387000C820FFF75DFF0620FFF75AFF1320FFF770
:1038800057FF2020FFF754FFFFF7AAFF0D20FFF797
:103890004FFF2021A248FDF7F4F810BD70B5044693
:1038A0000D4645F04000FFF743FF44F08000FFF76E
:1038B0003FFF70BD2DE9F0478046894614461E46FD
:1038C00049464046FFF7EAFF002712E000250BE0DB
:1038D0002178203901EB4101924A02EB4101485D18
:1038E000FFF752FF681CC5B2062DF1DB641C781C83
:1038F000C7B2B742EADBBDE8F0872DE9F05F834647
:10390000894692461F460A9CE11704EB5171C91083
:10391000B4EBC10105D12046E11704EB5171CD1084
:1039200005E02046E11704EB5171C9104D1C00263B
:1039300015E049465846FFF7B1FF4FF0000807E091
:1039400006FB07811AF80100FFF71EFF08F10108C6
:10395000B845F5D309F1010000F0FF09761CAE422D
:10396000E7D3BDE8F09F70472DE9FC5F82468B46A8
:1039700014466D4903C9CDE900016C4894FBF0F190
:1039800000FB1144002C3CDB42F2107094FBF0F081
:103990003030C5B242F2107094FBF0F100FB1140E0
:1039A0004FF47A7190FBF1F03030C6B2084694FBC8
:1039B000F0F100FB1140642190FBF1F03030C7B210
:1039C000642094FBF0F100FB11400A2190FBF1F020
:1039D000303000F0FF080A2094FBF0F100FB1140AA
:1039E000303000F0FF0920208DF800008DF80150E4
:1039F0008DF802608DF803708DF804808DF80590C5
:103A00003CE0644242F2107094FBF0F03030C5B2FA
:103A100042F2107094FBF0F100FB11404FF47A7108
:103A200090FBF1F03030C6B2084694FBF0F100FB99
:103A30001140642190FBF1F03030C7B2642094FB58
:103A4000F0F100FB11400A2190FBF1F0303000F062
:103A5000FF080A2094FBF0F100FB1140303000F029
:103A6000FF092D208DF800008DF801508DF80260BF
:103A70008DF803708DF804808DF8059006236A4652
:103A800059465046FFF716FFBDE8FC9F2DE9F84365
:103A900005460E46144624480830006800904FF44E
:103AA0007A7094FBF0F100FB114084B2642094FB27
:103AB000F0F03030C7B20A2094FBF0F00A2190FBFE
:103AC000F1F201FB1200303000F0FF080A2094FBF5
:103AD000F0F100FB1140303000F0FF098DF800706C
:103AE0008DF801808DF8029003236A4631462846FE
:103AF000FFF7E0FEBDE8F88370B504460D462946A1
:103B00002046FFF7CBFEFF20FFF73EFE70BD70B5ED
:103B10000446002521460020FFF7C0FE00BF0CE050
:103B200000140140906B0008B86D0008A0860100E9
:103B30000020FFF729FE681CC5B2542DF8DB70BDCC
:103B400070B504460D4629462046FFF7A7FE18200B
:103B5000FFF71AFE1820FFF717FE70BD30B50246BA
:103B60000B464FF6FF70002112E0555C68400024C0
:103B70000AE010F0010F04D04AF2010585EA600066
:103B800000E04010651CECB2082CF2DB4D1CE9B2E1
:103B90009942EADB30BDFEB500250020009001907F
:103BA000029054495448006802F083F9074602F035
:103BB00018FCC6B2F01706EB10600012A6EB00204E
:103BC000C0B28DF800004B494B48006802F071F913
:103BD00007464FF0874102F0FAF9064602F001FC71
:103BE000C0B28DF8010043494448006802F061F911
:103BF000074602F0F6FBC6B2F01706EB10600012A3
:103C0000A6EB0020C0B28DF802003A493B4800689C
:103C100002F04FF907464FF0874102F0D8F9064607
:103C200002F0DFFBC0B28DF8030032493248006871
:103C300002F03FF9074602F0D4FBC6B2F01706EBDC
:103C400010600012A6EB0020C0B28DF804002949D4
:103C50002948006802F02DF907464FF0874102F02D
:103C6000B6F9064602F0BDFBC0B28DF80500214949
:103C70002348006802F01DF9074602F0B2FBC6B205
:103C8000F01706EB10600012A6EB0020C0B28DF812
:103C9000060018491A48006802F00BF907464FF071
:103CA000874102F094F9064602F09BFBC0B28DF802
:103CB000070008216846FFF751FF84B22046E1174C
:103CC00004EB11610912A4EB0121C9B28DF80810AF
:103CD000E11704EB1161090A8DF8091000BF06E035
:103CE0001DF805000749FEF73BFD681CC5B20A2D0B
:103CF000F6DBFEBD0000C8422401002028010020A0
:103D0000540100200038014070B5FC480168FC48AF
:103D1000006802F0F3FB07D24FF07E51F8480068CC
:103D200002F0C7F8F6490860F4480168F4480068F2
:103D300002F0EEFB03D2F1480068F1490860F14857
:103D4000B0F9000002F008FB0646EF480168304673
:103D500002F007F90446EA480168EC48006802F0FE
:103D600000F90546214602F0A4F8E949086070BD53
:103D700070B500240025E748006802F019FB0446EE
:103D8000E548006802F014FB0546E4480078C0F5F9
:103D90006170A04204DCE1480078C0F5617409E07C
:103DA000DE480078A0F56170A04203DDDB480078B2
:103DB000A0F56174D9480078C0F56170A84204DCB0
:103DC000D6480078C0F5617509E0D4480078A0F5C0
:103DD0006170A84203DDD1480078A0F56175D04834
:103DE0000068844202DDCE48046807E0CC480068E1
:103DF0004042844202DACA4800684442C848006827
:103E0000854202DDC648056807E0C54800684042B3
:103E1000854202DAC24800684542002C0DDB2021B1
:103E2000C048FCF72EFEBD4800782044BE490880FB
:103E30004FF00000BD4908700DE02021B948FCF7A3
:103E40001EFE6042B54909780844B74908804FF022
:103E50000100B6490870002D0DDB4021B448FCF785
:103E60000EFEAE4800782844B24908804FF00000AA
:103E7000B14908700DE04021AD48FCF702FE6842F0
:103E8000A64909780844AB4908804FF00100AA49C7
:103E9000087070BD2DE9FC5F002400250026002776
:103EA000A046A146A24600200190A448006802F066
:103EB00053FAA34908600020A0490860A04801689F
:103EC000A048006802F047F801909F4801680198F7
:103ED00002F047F880469D480168019802F041F8D9
:103EE00081469B480168019802F035F8834699485D
:103EF0000168584602F035F88246494696480068FF
:103F000001F0D7FF9449086094480068944908601C
:103F100091480168404601F0CCFF5146009001F005
:103F2000C8FF834602F044FA8C49086008460068DE
:103F300002F012FA784908608A48006802F00CFA28
:103F400089490860002087490860874801688748D8
:103F5000006802F000F8074685480168384602F01C
:103F600000F8044683480168384601F0FAFF054628
:103F700081480168384601F0EEFF83467F480168BA
:103F8000584601F0EEFF064629467D48006801F0DC
:103F900090FF7B4908607B4800687B49086078484F
:103FA0000168204601F085FF3146009001F081FF55
:103FB000834602F0FDF9734908600846006802F084
:103FC000CBF954490860BDE8FC9F70B56F480168A3
:103FD0006F48006802F092FA0DD001206D49087018
:103FE0006D49087000206D4908706D4908706D4872
:103FF00000686D49086068480078012843D1674827
:104000000078401C654908706548007850B96648DA
:1040100001685E48006801F09EFF64490860012065
:104020005F4908705D48007802F09FF906465F48D6
:104030000168304601F095FF05465D4901F0C7FF74
:10404000044659480168204601F033FF554908608D
:1040500050480078012806D14C4800684C49086057
:1040600000204C4908704D48007864280BD100208E
:104070004A490870484908704A4800684A49086037
:1040800000204749087070BD70472DE9FE4F0020A1
:10409000029048480078401C46490870464801682C
:1040A0004648006801F057FF02904348006802F05C
:1040B000CBF904460D463F48007802F056F90090CF
:1040C000029901F04EFF019002F0BEF980460022F5
:1040D0003B4B02F0D2F8064622462B4601F0B7FFD2
:1040E000824602F0EFF937490860324800780A2822
:1040F00002D100202F490870BDE8FE8F100100207A
:10410000D0010020C000002014010020D4000020B5
:104110000C01002080010020840100201A010020F1
:10412000D4010020001001403C0400401801002090
:1041300000080140380400401901002094020020CA
:104140005401002064010020580100205C0100207F
:10415000DC010020600100207001002078010020B7
:104160007401002090020020280100203801002066
:104170002C01002030010020D80100203401002053
:10418000440100204C01002048010020940100203F
:10419000980100209E0100209D0100209F01002029
:1041A0009C010020240100208C01002090010020AF
:1041B0000000C842E0010020AC010020A80100205E
:1041C00000002440A00100209B490978A9B19B4927
:1041D0000968B0EB410F08DA99490988491E994AE4
:1041E00091850021944A117007E00021924A1170D4
:1041F0000121954A1170954A108093490978012947
:104200002AD18E490968884209DC8C490968091A53
:104210008F4A128802EB41018A4A91851CE0874946
:10422000096881420ADA89490988C839814205DD6D
:1042300087490988491E834A91850DE08349098889
:10424000C839814208DA81490988091A01EB41011C
:10425000C1F57A717B4A918510B900217A4A1170B3
:1042600070477C490978A9B17B490968B0EB410FD7
:1042700008DA7A490988491E724A91850021754AEF
:10428000117007E00021734A11700121744A117006
:10429000744A108072490978012929D16E49096848
:1042A000884209DC6C490968091A6F4A128802EBD6
:1042B0004101644A91851BE06749096881420ADA35
:1042C00068490988C839814205DD67490988491E5E
:1042D0005C4A91850CE063490988C839814207DA54
:1042E00060490988091A4900C1F57A61554A9185E2
:1042F00010B900215A4A117070472DE9F0415B480E
:10430000006802F037F80446594A5A4B01F0B5FFED
:10431000064602F07AF8BDE8F0812DE9F0415648F2
:10432000006802F027F80446514A524B01F0A5FFFD
:10433000064602F06AF8BDE8F0815049504A116023
:104340004902504A11604FF07C514F4A11604B496D
:104350004E4A116049024E4A11604FF07C514D4A5D
:10436000116000214C4A11604C4A11604C4A1160A6
:10437000704710B54B49FF20FEF7F2F9002406E024
:104380004949085D4749FEF7EBF9601CC4B2082CA7
:10439000F6DB4449FE20FEF7E3F910BD2DE9F041BC
:1043A000424800684249C86142480068886188699B
:1043B00001F0E0FF0646404A404B01F05EFF044634
:1043C00002F080F83A490860C86901F0D3FF04465A
:1043D000394A3A4B01F051FF064602F073F834496E
:1043E00048600A465168106801F063FD05464FF0C9
:1043F000804101F0ECFD0446314901F0E8FD2C4913
:1044000088600A461168506801F0A5FD05462D49EF
:1044100001F0DDFD04462A4901F0D9FD2449C860B8
:1044200008468068204908602148C0684860FFF756
:10443000A0FFBDE8F081000070020020BC01002058
:10444000C001002000100040E1010020E201002036
:10445000C20100207C020020C4010020C80100200D
:10446000E4010020E6010020CA0100206C020020C7
:104470001283C0CAA1055740780200200000A04066
:104480002C010020300100203401002058010020C0
:104490005C01002060010020B0010020B401002078
:1044A0009401002000380140EC010020940200201B
:1044B000C0020020900200200C022B8796E19A4057
:1044C0005839B43C46B6F33E002100BF01E04A1C17
:1044D000D1B200EB80028A42F9DC7047FA48806969
:1044E00040F04000F8498861F848006820F47F40B7
:1044F000F749C1F800080846D0F8000840F44C50CD
:10450000C1F800080846D0F80C0840F00C00C1F8CB
:104510000C08704700B5ED48006820F47040EC4985
:10452000C1F800080846D0F8000840F44050E749B8
:1045300008604FF00100E7490860E749C1F88801C9
:104540004FF00400FFF7C0FF0020E349C1F88C01E1
:104550000420FFF7B9FF0020DF49C1F8880100BD42
:1045600000B5DA48006820F47040D949C1F8000865
:104570000846D0F8000840F44050D44908604FF095
:104580000000D6490860D449C1F88C014FF00400FE
:10459000FFF79AFF0120D049C1F888010420FFF7F6
:1045A00093FF0120CC49C1F88C0100BD00B5002368
:1045B000C648006820F47040C549C1F800080846A4
:1045C000D0F8000840F40040C04908604FF00100F6
:1045D000C0490860FFF778FF0120BF49C1F8880192
:1045E000FFF772FF07E0581CC3B2FA2B03DDFFF799
:1045F000B7FF012000BDBA4800680028F3D1B749D1
:10460000086000BFF6E700B50020B4490860B04874
:10461000D0F8000820F47040AD49C1F80008084601
:10462000D0F8000840F44050A84908604FF000005E
:10463000A949C1F88C014FF00200FFF745FF0120A6
:10464000A549C1F888010220FFF73EFF0020A249DA
:10465000C1F8880100BD00B50020A04908609C4851
:10466000D0F8000820F470409949C1F800080846C5
:10467000D0F8000840F44050944908604FF0010021
:104680009549C1F88C014FF00200FFF71DFF012092
:104690009149C1F888010220FFF716FF00208E49DA
:1046A000C1F8880100BD10B503468848006820F4B1
:1046B00070408749C1F800080846D0F8000840F467
:1046C0004050824908604FF0000084490860044669
:1046D0001AE0D8097F4908604FEA43604FEA106347
:1046E0004FF00200FFF7F0FE01207B49C1F888017E
:1046F0000220FFF7E9FE0020784908604FF0020031
:10470000FFF7E2FE601CC4B2082CE2DB10BD30B53E
:10471000044600236D48006820F470406C49C1F8DD
:1047200000080846D0F8000840F40040C1F800082E
:104730004FF0000516E00020684908604FF00200C5
:10474000FFF7C2FE01206449C1F888015806030E34
:104750006348006808B1581CC3B20120FFF7B4FEDB
:10476000681CC5B2082DE6DB14B9FFF774FF01E041
:10477000FFF749FF184630BD70B506460C46154692
:10478000FFF7C8FEA020FFF78EFFFFF70FFF3046B0
:10479000FFF789FFFFF70AFF2046FFF784FFFFF7C7
:1047A00005FF2846FFF77FFFFFF700FFFFF7D8FE62
:1047B00070BDF0B50446FFF7ADFEA020FFF773FF14
:1047C000FFF7F4FE2046FFF76EFFFFF7EFFEFFF75F
:1047D000A1FEA120FFF767FFFFF7E8FE0120FFF72A
:1047E00096FF06460020FFF792FF0746FFF7B8FE48
:1047F00007EB062085B22846F0BD00B500221C213B
:104800000820FFF7B9FF802204210C20FFF7B4FF36
:1048100000BD00B50020FFF7CCFF32490860012041
:10482000FFF7C7FF304908602E480068000209689A
:1048300000EB11202D4908600846006800BD00B556
:1048400000223C210920FFF797FF402204210C2081
:10485000FFF792FF00BD00B50220FFF7AAFF214934
:1048600008600320FFF7A5FF1F4908601D48006886
:104870000002096800EB11201C4908600846006826
:1048800000BD00B500225C210A20FFF775FF202241
:1048900004210C20FFF770FF00BD00B50420FFF7D6
:1048A00088FF104908600520FFF783FF0E49086064
:1048B0000C4800680002096800EB11200B490860F1
:1048C0000846006800BD00000010024000180140CA
:1048D000001001408C012342000023428801234242
:1048E0000C012342FC0100200002002004020020F1
:1048F00000B500227C210B20FFF73EFF102204218F
:104900000C20FFF739FF00BD00B50620FFF751FF6F
:10491000F84908600720FFF74CFFF7490860F548A1
:1049200000680002096800EB1120F449086008469D
:10493000006800BD00B5FFF7D1FD00BD00B5FFF771
:104940005CFFFFF766FF00BD00B5FFF778FFFFF7DC
:1049500082FF00BD00B5FFF794FFFFF79EFF00BD8B
:1049600000B5FFF7C5FFFFF7CFFF00BD00B587B06B
:1049700001210420FCF783FC00208DF81B0010208F
:10498000ADF8180003208DF81A0006A9DC48FBF7E3
:10499000CBFF01214802FCF772FC4FF40040FCF70A
:1049A000D6FBD848FBF740FD00208DF809000490A5
:1049B0004FF4602003900020019001208DF8140036
:1049C00000208DF8080001A9CE48FBF754FD012115
:1049D000CC48FBF77CFDCB48FBF79BFD00BFC948EB
:1049E000FBF79CFD0028FAD1C648FBF7A1FD00BFEC
:1049F000C448FBF7A2FD0028FAD107B000BD10B5EE
:104A0000072301220421BF48FBF7CDFD0121BD484A
:104A1000FBF79DFD00BF0221BA48FBF7F0FE00281E
:104A2000F9D0B848FBF726FE10BD70B50446002546
:104A3000002608E0FFF7E3FF05444EF27860FDF73B
:104A4000BBFD701CC6B2A642F4DBB5FBF4F080B22D
:104A500070BD10B5FFF78AFF10BD2DE9FE4F042091
:104A6000FFF7E3FF0290029801F095FC80464FF0BB
:104A70006632A54B01F090FB06460022A34B01F0E5
:104A8000FCFB044601F01EFD0190019801F0DCFCE6
:104A900080469F4A9F4B01F079FB06469E4A9F4BFA
:104AA00001F0EBFB044602460B4600209C4901F056
:104AB000E4FB824601F006FD00900098BDE8FE8F01
:104AC00008B501214020FCF7DAFB10208DF8030027
:104AD00003208DF802004FF40040ADF80000694655
:104AE0009048FBF721FF4FF400418E48FBF7C9FFC8
:104AF00008BD04218C4A1170704708B5012140207F
:104B0000FCF7BDFB48208DF8030048F28000ADF8AB
:104B1000000069468348FBF707FF01210420FCF7EA
:104B2000AEFB48208DF803004FF4C050ADF80000F4
:104B300069467348FBF7F8FE08BD70B500244FF4D2
:104B400080516F48FBF781FF78B94FF400616C48E2
:104B5000FBF77BFF012808D12046621CD4B201F08C
:104B600004FC054600F082FE24E04FF480516448C6
:104B7000FBF76BFF01280DD1C1026148FBF765FF10
:104B800040B92046621ED4B201F0EFFB054600F0AA
:104B90006DFE0FE04FF480515948FBF756FF012896
:104BA00008D1C1025648FBF750FF012802D100206E
:104BB0005E49086070BD704710B5FFF74EFF5C4955
:104BC00008605C495A48006801F098FC0DD85A48C2
:104BD000007818B959480068594908605948574938
:104BE000086001205449087010E0534800780128FB
:104BF0000CD150494E48006801F08AFC06D250485A
:104C000000684E49086000204B49087010BD30B55F
:104C100000220EE00A2390FBF3F403FB140330336D
:104C2000DDB21346521CC3F10303CD540A2390FB9B
:104C3000F3F00028EEDC00F13003C2F103040B5561
:104C400030BD30B58BB005460C463FA003C8CDE95A
:104C500009013DA103C9CDE907013DA103C9CDE982
:104C600005011421684601F018F909A92846FFF743
:104C7000CEFF07A92046FFF7CAFF9DF824008DF854
:104C800000009DF825008DF801009DF826008DF8A4
:104C900002009DF827008DF803009DF81C008DF898
:104CA00004009DF81D008DF805009DF81E008DF88C
:104CB00006009DF81F008DF807009DF814008DF880
:104CC00008009DF815008DF809009DF816008DF874
:104CD0000A009DF817008DF80B000D208DF80C00D0
:104CE0000A208DF80D001C496846FDF748FD0BB001
:104CF00030BD0000FC010020000200200402002062
:104D0000000801400024014066660A400000B040EF
:104D1000535BEA20AF07C73F5B423EE8D9143640F9
:104D20000000F03F001801403D0200206C0200200E
:104D300024020020000020414402002094010020B1
:104D400040020020000080C0303030300000000001
:104D50003134313100000000004C00402DE9F04FAB
:104D600087B000240025A04600200690059000266C
:104D700081460490039000270290019000BF16E046
:104D8000FFF7DCFD80464544FF48FDF715FCFFF7C3
:104D9000DBFD81464E44FC48FDF70EFCFFF7DAFDD3
:104DA000029002980744F848FDF706FC641C032CA7
:104DB000E6D30320B5FBF0F0F44908600320B6FB0E
:104DC000F0F0F34908600320B7FBF0F0F149086008
:104DD000EF480068F049884222D9F0480078F8B9D5
:104DE000EF480068EF490860FFF797FA10F10A0FE3
:104DF0003DDB01210846FFF724FFEB48FDF7DCFB14
:104E00000120EA490870E5490870FFF786FAA0F129
:104E1000140B584601F0A0FA824600F062FD26E02D
:104E2000E2480078012822D1DD480068DD490968A0
:104E3000401AB0F5FA7F1AD9D5480068D649884299
:104E400015D201210220FFF7FCFED748FDF7B4FB85
:104E50000020D6490870D1490870FFF75EFA00F1CA
:104E6000140B584601F078FA824600F03AFDC74824
:104E70000068C949884219D90120CD490870CD4937
:104E800008700020CC4908604FF4C870CB490880F6
:104E90004000CB490880FFF740FA00F1050B584667
:104EA00001F05AFA824600F01CFD19E0C048007873
:104EB000012815D1B5480068B749884210D20020B2
:104EC000BB490870BB4908704FF4FA70BA490860D2
:104ED00043F69820B94908804FF4FA70B849088021
:104EE000AC480068AC49884219D90120B54908701E
:104EF000B54908700020B04908604FF4C870AF4948
:104F000008804000AE490880FFF707FAA0F1050BC2
:104F1000584601F021FA824600F0E3FC19E0A94866
:104F20000078012815D19B4800689B49884210D21F
:104F30000020A4490870A44908704FF4FA709E49F3
:104F4000086043F698209D4908804FF4FA709C4908
:104F5000088007B0BDE8F08F2DE9FF5F06469B484B
:104F60000078012810D100209849087098490860FD
:104F7000984908609849086098490860984908600D
:104F8000984908609849086098480078012840D1FD
:104F90008E480078E8BB8F48006895490968084446
:104FA0008C4908608C4800689249096808448A491D
:104FB00008600A2E02DBB6F5B47F05DD16F10A0F94
:104FC00006DC16F5B47F03DB8B488149086003E0FB
:104FD0004FF07C507E490860002E7EDD7C480068E2
:104FE00001F032FACDE90001304601F0C3F9044680
:104FF000824A834B01F0D0F80746DDE9002301F037
:10500000CBF881468A4673490968734A1268881A40
:1050100000E073E001F0AEF94A465346CDE90201E3
:1050200001F028FA1AD86F480068401C6D490860E2
:105030000846006801F09EF90746724A724B01F07B
:10504000ABF8044601F03EFA64490860084600687F
:105050006349086063480068634908605C48016808
:105060004FF07E5000F077FF834601F0EDF90446E3
:105070000D46304601F07EF9604A614BCDE90001F2
:1050800001F08AF8074622462B4601F085F8CDE963
:10509000020150490968504A1268881A01F06AF9F9
:1050A0008146DDE9022301F0F9F927D2304601F00B
:1050B00061F90746514A524B01F06EF881468A4623
:1050C00044490968444A1268881A01F053F90446B1
:1050D0004A46534601F0E2F900E03CE00FD80020D8
:1050E0003C4908603C4908603C4908603C4908600C
:1050F0003E4908703B4908603B4908602AE139484D
:105100000068401E3749086037490968354A126807
:10511000881A01F02FF981463A4A3B4B01F03CF8DE
:1051200004460D462E48006801F08EF922462B46B3
:10513000CDE9020101F02AF8074601F0C3F9274939
:10514000086000212548006801F0D8F902D8002045
:1051500022490860FEE0002E7EDA1D48006801F05A
:1051600073F904460D46704201F004F98146234A62
:10517000234B01F011F8074622462B4601F00CF8AC
:10518000CDE90201144941E05880040008020020E2
:105190000C0200201002002040420F001D020020DF
:1051A0006000002020020020C02709001902002012
:1051B000180200201C020020C4010020C8010020A9
:1051C000CA0100201A0200201E0200202D02002029
:1051D000540200203002002034020020A0010020F0
:1051E000A40100204C020020500200202C020020CC
:1051F0009002002094020020CDCC4C3E304CA60AF8
:10520000462515409A9999999999B93F0968BD4AD7
:105210001268881A01F0AEF8CDE90001DDE9022339
:1052200001F028F91CD8B8480068401EB64908604B
:105230000846006801F09EF80446B44AB44B00F0FA
:10524000ABFF074601F03EF9B24908600846006826
:10525000B1490860AC4800E050E00068AF49086020
:10526000AF4801684FF07E5000F075FE814601F0B6
:10527000EBF807468846704201F07CF88146A94A5F
:10528000A94B00F089FF04463A46434600F084FFEC
:10529000CDE90201A54909689A4A1268881A01F005
:1052A00069F8CDE90001DDE9022301F0F7F851D2F8
:1052B000704201F05FF804469A4A9B4B00F06CFF85
:1052C00081468A46994909688E4A1268881A01F00F
:1052D00051F807464A46534601F0E0F80FD800203F
:1052E00088490860914908608A4908608A490860CD
:1052F0008F49087084490860884908602AE082481C
:105300000068401C80490860844909687E4A126828
:10531000881A01F02FF804467C4A7D4B00F03CFFD0
:10532000074688467C48006801F08EF83A464346B6
:10533000CDE9020100F02AFF814601F0C3F875496A
:10534000086000217348006801F0E2F802D80020EC
:1053500070490860BDE8FF9F10B5002175480068DE
:1053600001F0CCF805D000217348006801F0C6F8C0
:105370000BD000217148006801F0C0F809D000216D
:105380006F48006801F0BAF803D101206D49087038
:1053900002E000206B4908706A48007850B16A4802
:1053A0000078401C6849087068480078401C6749CC
:1053B000087004E00020644908706449087062487D
:1053C00000780A2820DB00205F490870202160480F
:1053D000FBF755FB40215F48FBF753FB10215C486E
:1053E000FBF74FFB0A20FDF7E7F820215848FBF7B1
:1053F00048FB40215748FBF742FB10215448FBF77C
:105400003EFB01205449087050480078962816DB6E
:1054100000204E49087051490860514908603D49D3
:105420000860504908605049086050490860404988
:10543000087001204E49087002204749087010BDCD
:1054400010B54C494C48006801F062F808D24B484E
:10545000007828B90120494908700221FFF7F1FBC3
:105460004748FDF7A9F843494348006801F046F86A
:105470000AD242480078012806D100203F4908702E
:1054800002210846FFF7DDFB3D48FDF795F810BD0A
:1054900070B504463B48007840B9204600F05CFFF8
:1054A000054600F01EFA01203649087036480068AB
:1054B0003649096888420DDB32480078012809D155
:1054C00002203049087000202F4908602F490860E9
:1054D000012070BD0020FCE710B52D4800780128A0
:1054E00004D1FFF73BFCFFF7ABFF08E0284800784A
:1054F00028B91920FFF7CCFF01202549087010BDFD
:1055000070470000300200204C0200209A999999BF
:105510009999B93FA0010020A40100205002002069
:1055200054020020304CA60A4625154034020020C3
:105530002C020020380100202801002064010020F6
:1055400054010020580200203802002039020020B7
:1055500000100140000801403C020020940100209E
:1055600024010020700100204401002028020020B6
:105570002D0200200000A041D00000203A020020AF
:10558000C027090059020020780200207402002080
:105590003B02002008B501211020FBF770FE10200F
:1055A0008DF8030003208DF802004FF48050ADF811
:1055B00000006946FB48FBF7B7F94FF40050ADF81F
:1055C00000006946F748FBF7AFF94FF44051F54842
:1055D000FBF755FA08BD08B501212020FBF74FFE67
:1055E00048208DF803000120ADF800006946EE4820
:1055F000FBF79AF90220ADF800006946EA48FBF78C
:1056000093F908BD70B505460E4614463146284646
:10561000FBF71BFAA04214D142F21070FCF7CCFF4A
:1056200031462846FBF711FAA04208D100BF3146A7
:105630002846FBF70AFAA042F9D0002070BD0120ED
:10564000FCE70120FAE710B500220121D648FFF758
:10565000D9FFD8B9D348C06880F40050D149C86098
:10566000D2480078401CD1490870087800EBD0710E
:105670004910B0EB410104D11021CA48FBF7FFF9F2
:1056800010E01021C748FBF7FCF90BE000220221D3
:10569000C548FFF7B7FF28B9C248C06880F400507A
:1056A000C049C86010BD08B501210220FBF7F4FD18
:1056B00001210C20FBF7E3FD8020ADF8000018204D
:1056C0008DF8030003208DF802006946B848FBF707
:1056D0002BF90120ADF800006946B648FBF724F924
:1056E00008BD00B587B040F2E730ADF814000320E4
:1056F000ADF810000020ADF81600ADF8120004A9B6
:10570000AD48FBF7FBFE6020ADF800000220ADF8CD
:1057100008000120ADF80200A8480088ADF8060096
:105720006946A548FBF769FF0821A348FCF757FB2A
:105730000120ADF80200A2480088ADF806006946D5
:105740009D48FBF7A3FF08219B48FCF753FB012171
:105750009948FCF702FA07B000BD10B5FFF7A3FFA8
:10576000FFF7BFFF10BD08B501211420FBF787FD2F
:1057700010208DF8030003208DF802004020ADF8C2
:10578000000069468A48FBF7CFF83020ADF80000EA
:1057900069468448FBF7C8F820218248FBF771F975
:1057A00040218348FBF76BF910217E48FBF767F92E
:1057B00008BD08B501214020FBF761FD10208DF8E0
:1057C000030003208DF8020047F65070ADF800008A
:1057D00069467C48FBF7A8F84FF480617948FBF7ED
:1057E00050F94FF480717748FBF749F94FF4804145
:1057F0007448FBF744F94FF480517248FBF73FF9C6
:1058000040217048FBF73DF910216E48FBF737F94E
:1058100008BD08B54FF44070FAF78AFD36208DF8C0
:1058200000000A208DF8010000208DF80200012000
:105830008DF803006846FAF780FD01211020FBF780
:105840002BFD472060490885C720888505200880F2
:105850000120888108BD002801D9012100E0002134
:105860005A4A914201DA584A908570472DE9F04131
:1058700080460120564908700021404600F048FE4D
:1058800014D85449404600F043FE01D8DFF8448163
:10589000404600F0D9FD06464F4A504B00F07CFCD4
:1058A000044600F0B2FD4E49086013E04D49404601
:1058B00000F024FE01D8DFF82C81404600F0C4FD42
:1058C0000646454A454B00F067FC044600F09DFD46
:1058D000434908604FF480713A48FBF7D0F8BDE8BF
:1058E000F0812DE9F041804601203F4908700021F8
:1058F000404600F00DFE14D83649404600F008FE40
:1059000001D8DFF8D080404600F09EFD0646324ABE
:10591000324B00F041FC044600F077FD334908604B
:1059200013E03349404600F0E9FD01D8DFF8C080BC
:10593000404600F089FD0646274A284B00F02CFC23
:10594000044600F062FD29490860BDE8F08108B511
:1059500001212120FBF793FC01210803FBF7B3F899
:1059600010208DF8030003208DF802004FF47060C2
:10597000ADF8000069460C48FAF7D6FF4FF47061A5
:105980000948FBF77EF828208DF8030003208DF8E6
:1059900002004FF47040ADF8000069460248FAF783
:1059A000C3FF08BD00100140001401406002002048
:1059B00000080140000C0140000400406202002089
:1059C00064020020001801400010004020A10700E0
:1059D00070020020000034421283C0CAA105574063
:1059E00068020020000034C27C0200207402002003
:1059F0000000A0C108B54FF44070FAF799FC1E20D2
:105A00008DF800000A208DF8010000208DF80200BA
:105A100001208DF803006846FAF78FFC08BD00B539
:105A200087B0F648FBF796FC01210420FBF734FC15
:105A30004FF6FF70ADF808004720ADF804000020D5
:105A4000ADF80A00ADF8060001A9EC48FBF756FDD9
:105A50000020ADF81000ADF812000120ADF81400E0
:105A60000020ADF81600ADF8180004A9E348FBF7D4
:105A7000B6FF0420ADF810000020ADF812000120A0
:105A8000ADF814000020ADF81600ADF8180004A918
:105A9000DA48FBF7A4FF0820ADF810000020ADF8AD
:105AA00012000120ADF814000020ADF81600ADF88A
:105AB000180004A9D148FBF792FF0C20ADF81000A4
:105AC0000020ADF812000120ADF814000020ADF860
:105AD0001600ADF8180004A9C848FBF780FFFFF7CF
